:100000000C942A000C9447000C9447000C94470071
:100010000C9447000C9447000C9447000C94490042
:100020000C9447000C9447000C9447000C94470034
:100030000C9447000C9447000C9447000C94470024
:100040000C9447000C9447000C9447000C94470014
:100050000C94470011241FBECFE5D8E0DEBFCDBF12
:1000600010E0A0E6B0E0ECE4F1E002C005900D92F3
:10007000A63AB107D9F720E0A6EAB0E001C01D9288
:10008000A83AB207E1F70E9488000C94A4000C94EF
:1000900000001F920F920FB60F9211248F939F931F
:1000A000EF93FF93E091A600F091A700EE0FFF1FE2
:1000B000E05AFF4F808183BD8091A6009091A700F8
:1000C00001969093A7008093A600419724F089E4BD
:1000D00085BD81E088BB8091A6009091A7004097E4
:1000E00024F489E685BD88B318BA8091A600909162
:1000F000A700819724F01092A7001092A600FF910C
:10010000EF919F918F910F900FBE0F901F901895B8
:1001100012BA80E881BB18BA81E087BB1FBC89E0B6
:100120008EBD1DBC1CBC17BC16BC83E18BBD89ED0C
:100130008ABD19BC18BC12BC89E685BD14BC13BCB1
:0C01400080E189BF7894FFCFF894FFCFD6
:10014C000000330064009100B800D800EF00FC0000
:10015C00FE00FC00EF00D800B800910064003300F2
:10016C000000000000000000000000000000000083
:10017C000000000000000000000000000000000073
:06018C000000000000006D
:00000001FF
